:020000040800F2
:10000000E0470020850200087F310008752B0008BA
:1000100071310008F1090008593B00080000000098
:10002000000000000000000000000000C501000802
:10003000450A00080000000021020008B53400084D
:100040009F0200089F0200089F0200089F0200080C
:100050009F0200089F0200089F0200089F020008FC
:100060009F0200089F0200089F0200089F020008EC
:100070009F0200089F0200089F0200089F020008DC
:100080009F0200089F0200089F0200089F020008CC
:10009000F50900089F0200089F0200089F0200085F
:1000A0009F020008913500089F0200089F02000887
:1000B0009D350008D53500089F0200089F02000802
:1000C0009F0200089F0200089F0200089F0200088C
:1000D0009F0200089F020008353B00089F020008AD
:1000E0009F0200089F0200089F0200089F0200086C
:1000F0009F0200089F0200089F0200089F0200085C
:100100009F0200089F0200089F0200089F0200084B
:100110009F0200089F0200089F0200089F0200083B
:100120009F0200089F0200089F0200089F0200082B
:100130009F0200089F0200089F0200089F0200081B
:100140009F0200089F0200089F0200089F0200080B
:100150009F0200089F0200089F0200089F020008FB
:100160009F0200089F0200089F0200089F020008EB
:100170009F0200089F0200089F0200080000000084
:100180009F0200089F0200089F0200089F020008CB
:100190009F0200089F0200089F0200089F020008BB
:1001A00000000000000000009F020008DFF810D0EF
:1001B00000F0FAFB004800478D580008AFF30080BC
:1001C000E04700202C4B19680868B0E8F04F80F336
:1001D0000988BFF36F8F4FF0000080F311887047DC
:1001E0000000000008480068006880F308884FF0AD
:1001F000000080F3148862B661B6BFF34F8FBFF37F
:100200006F8F00DF00BF00BF08ED00E0DFF80C00DB
:10021000016841F470010160704700BF88ED00E0A3
:10022000EFF30980BFF36F8F134B1A681EF0100FA6
:1002300008BF20ED108A20E9F04F106009B44FF09C
:10024000500080F31188BFF34F8FBFF36F8F06F01C
:1002500001FA4FF0000080F3118809BC19680868A2
:10026000B0E8F04F1EF0100F08BFB0EC108A80F31A
:100270000988BFF36F8F7047B4000020EFF305804B
:10028000704700000648804706480047FEE7FEE743
:10029000FEE7FEE7FEE7FEE7FEE7FEE7FEE7FEE736
:1002A00081350008AD0100082DE9F05F054600200A
:1002B00092469B4688460646814640241BE02846D7
:1002C00041464746224600F034F953465A46C01A82
:1002D000914110D311461846224600F01BF92D1A01
:1002E00067EB01084F4622460120002100F012F979
:1002F00017EB00094E41201EA4F10104DFDC484643
:1003000031462A464346BDE8F09F40EA01039B0779
:1003100003D009E008C9121F08C0042AFAD203E07A
:1003200011F8013B00F8013B521EF9D27047D2B2DE
:1003300001E000F8012B491EFBD270470022F6E7CE
:1003400010B513460A4604461946FFF7F0FF20464B
:1003500010BD2DE9FE4F81EA030404F0004421F0B2
:10036000004100944FF0000B23F0004350EA0104D9
:100370005ED052EA03045BD0C3F30A54C1F30A55BA
:100380002C44A4F2F3340194A0FB0254C1F31301F2
:1003900041F48011C3F3130343F4801301FB0244BF
:1003A00000FB034E840A970A44EA815447EA8357C4
:1003B000A4FB076802958D0A05FB07854FEA932C7D
:1003C00004FB0C542705029D4FEA065847EA1637EE
:1003D000B5EB08056EEB070C870E920E47EA811706
:1003E00042EA8312A7FB0201B6EB0B0164EB0004A7
:1003F0002B0D43EA0C335E1844EB1C50DA46514691
:10040000E7FB0201C5F313044FEA0B3343EA14532D
:100410004FEA0432019C43EA0603A4F10C0402945F
:10042000009CCDE900B400F0DAF803B0BDE8F08F2D
:1004300000200146F9E70EB5C10F80EAE0700844DC
:10044000CA07002140F233438DE80E000A460B46EE
:1004500000F0C5F803B000BD00F0004230F00040ED
:100460000AD0C10D01F56071C0F3160042EA0151D6
:10047000C208400711437047002001467047000042
:1004800030B5041E71F1000404DB4FF0004440421B
:1004900064EB0101141E73F1000405DB1C464FF0F0
:1004A0000043524263EB0403994208BF904230BDBF
:1004B00001F0004330B421F0004150EA010206D0BF
:1004C0000A0DA2F56072C1F31301002A02DC30BCF0
:1004D00000207047440F44EAC104C100E01830BC5A
:1004E00000EBC25000F035B830B50B460146002095
:1004F0002022012409E021FA02F59D4205D303FAE6
:1005000002F5491B04FA02F52844151EA2F1010266
:10051000F1DC30BD202A04DB203A00FA02F1002091
:1005200070479140C2F1200320FA03F31943904031
:100530007047202A04DB203A21FA02F0002170479C
:1005400021FA02F3D040C2F120029140084319463B
:1005500070470029A8BF7047401C490008BF20F021
:100560000100704710B4B0FA80FC00FA0CF050EAB9
:10057000010404BF10BC704749B1CCF1200421FA3A
:1005800004F411FA0CF118BF012121430843A3EB35
:100590000C01CB1D4FEA00614FEA102042BF002042
:1005A00010BC704700EBC35010440029A4BF10BC1E
:1005B0007047401C490008BF20F0010010BC704784
:1005C00010B5141E73F1000408DA401C41F100015B
:1005D00092185B411A4301D120F0010010BD2DE9B2
:1005E000F04D92469B4611B1B1FA81F202E0B0FAA9
:1005F00080F220329046FFF78DFF04460F4640EA16
:100600000A0041EA0B0153465A46084313D01146EB
:1006100053EA010019D0C8F140025046FFF789FFA4
:1006200005460E46504659464246FFF773FF0843BB
:1006300005D0012004E020463946BDE8F08D0020B9
:10064000054346EAE0762C4337430A986305E40AFB
:10065000A0EB08000022FD0A44EA47540A3002D504
:1006600000200146E9E7010510196941DDE9084567
:1006700000196941BDE8F04DA2E72DE9FE4F804623
:1006800081EA0300C00F0C46009021F0004123F0E6
:100690000045B8EB0200A94105D2404621469046EC
:1006A0001C460B46024623F00040104347D0270D5E
:1006B000C7F30A00C3F30A510290401A0190402880
:1006C0006BDAC3F3130040F4801B0098924620B10C
:1006D0000023D2EB030A63EB0B0B01985946C0F1E0
:1006E00040025046FFF716FF06460D465046594653
:1006F000019A00F06BF910EB08006141002487EAD1
:10070000115284EAE7731A4340D0009A62B3019A07
:10071000012A4FEA075215DC001B61EB02014FF082
:10072000004202EA0752CDE90042001C41F5801167
:1007300032462B46FFF753FF03B0BDE8F08F40462B
:100740002146F9E7001B61EB0201001C41F5801313
:1007500000185B412018A2F5001747EB030140EA9F
:10076000D570B6196D4111E06D084FEA360645EABD
:10077000C0754FEA0752001B61EB0201001C41F5F6
:10078000801149084FEA30000019514132462B468A
:1007900003B0BDE8F04FFFF713BF009801224000FF
:1007A0000023D0EB020263EBE073009821464FEA8E
:1007B000E074B8EB000061EB0401E9E783F000436B
:1007C0005BE781F0004158E72DE9F04D81EA030431
:1007D00004F0004B21F0004514464FF0000A23F0CE
:1007E000004150EA050220D054EA01021DD0C5F3B1
:1007F0000A570246C5F31303C1F31300C1F30A56A7
:1008000040F4801543F48013A7EB0608101BD6466E
:1008100008F2FD3873EB050002D308F1010801E08E
:1008200092185B41B8F1000F03DA00200146BDE8E1
:10083000F08D00204FF48011064684460EE0171B11
:1008400073EB050705D3121B63EB050306434CEA64
:10085000010C49084FEA300092185B4150EA010749
:10086000EDD152EA030012D082EA040083EA0501C6
:10087000084305D0101BAB4106D20122002306E03D
:1008800000224FF0004302E06FF0010253101AEB18
:1008900006004CEB085110EB0A0041EB0B01BDE8E0
:1008A000F04DFFF78DBE2DE9F04D00231A461B1ABF
:1008B0008A4103DB00200146BDE8F08DC1F30A52F6
:1008C000C1F3130141F480154FF0000BD10702D1A1
:1008D00000186D41521E0027044640F2FF113846B1
:1008E00001EB620A3E468046024600204FF480112A
:1008F000FFF71FFEC2197141BB1846EB0100B4EBB4
:10090000030C75EB000C04D3E41A65EB00051746E5
:100910000E46241908F101006D4180463428E3DDBC
:10092000F91946EB0600091BA84103D24FF0FF322C
:10093000134601E0002213461BEB070046EB0A5169
:10094000BDE8F04DFFF73CBEC1F30A52C1F31301FD
:1009500040F2FF3341F480119A4202DA002001464E
:10096000704740F233439A42A2F2334202DC5242D1
:10097000FFF7DFBDFFF7CEBD30B5041E71F10004F7
:1009800004DB4FF00044404264EB0101141E73F19C
:10099000000405DB1C464FF00043524263EB0403A6
:1009A0008B4208BF824230BD064C074D06E0E0682E
:1009B00040F0010394E8070098471034AC42F6D3A6
:1009C000FFF7F8FB2470000844700008202A06DBBB
:1009D000CB17203A41FA02F043EAE07306E041FA0D
:1009E00002F3D040C2F120029140084319467047FB
:1009F000FEE70000014800F046BA0000A404002011
:100A00000D484FF40071016000218160C160082130
:100A10000161EC38018C09480A0AA0F12403027034
:100A200041700549B839098C0A0A8270C1700246C2
:100A30000149034800F0BEB8100200202400002045
:100A4000A4040020704700002DED028BDFF8E4A025
:100A5000DFF8DC90DFF8E08084B0B6EE008AAAF11F
:100A6000340B00BF99ED020A544630EE080A89EDB6
:100A7000020ADAF80400FFF7EFFC05460E4620688C
:100A8000FFF7EAFC41EC100B2A48B4F92010683853
:100A900053EC102BB0F92000CDE90056CDE902103F
:100AA00026A003F05BF85C46DBF80400FFF7D4FCFB
:100AB00005460E462068FFF7CFFC41EC100B1D48A1
:100AC000B4F920109C3853EC102BB0F92000CDE97C
:100AD0000056CDE9021019A003F040F8D8F8300014
:100AE000FFF7BAFC06460F46D8F82C00FFF7B4FC17
:100AF00004460D46D8F82800FFF7AEFC8DE8F0005C
:100B000041EC100B11A053EC102B03F027F8D9F88F
:100B10000800FFF7A1FC41EC100B18A053EC102BC0
:100B200003F01CF84FF4FA7005F0D6F89AE70000CD
:100B300000000020C00100203006002025660925A5
:100B4000660925640925640D0A00000020526F6CB7
:100B50006C3A2025382E336C662020202050697492
:100B600063683A2025382E336C6620202020596196
:100B7000773A2025382E336C660D0A00CAB1BCE4E2
:100B8000A3BA252E336C660D0A00000072B6FEE78C
:100B900090F82020012A07D0022A05D0416A41F4AA
:100BA0008021416201207047006842690A43426126
:100BB00000207047F0B590F820500468A468012D1B
:100BC00005D0022D03D0416A41F480215DE014F08C
:100BD000406F01D1E50055D5C4F30164022C03D95F
:100BE000416A41F4000150E00125A5401D608D6877
:100BF0004FF4C0739DB1CE6835434E6845EAC605D3
:100C0000066803EB0417F5514FF4C275076805EB4E
:100C100004150E697E51097D012905D009E00E8871
:100C2000CD6845EA4655EBE701684E5946F48076B3
:100C30004E511179D579567941EA056195792D049E
:100C400045EA062529434FF4C676056806EB0416E7
:100C5000A9511178D57841EA0561957852782D042B
:100C600045EA022211434FF4C475026805EB0415EE
:100C70005151006803EB0411425842F00102425006
:100C80000020F0BD416A41F4001141620120F0BD35
:100C900010B590F82020012A07D0022A05D0416A19
:100CA00041F480214162012010BD3B48D0F8002270
:100CB00042F00102C0F80022D0F8002222F47C5257
:100CC000C0F80022D0F800224B6A42EA0322C0F8A2
:100CD00000220A7D02F01F0301229A40D0F81C3244
:100CE0009343C0F81C32CB69B3B9D0F80C329343AC
:100CF000C0F80C328C894B6864F31F434C6900EBDD
:100D0000C404C4F840320C890B6864F31F434C6977
:100D100000EBC404C4F84432CB69012B16D1D0F8DF
:100D20000C321343C0F80C320C884B6864F31F4339
:100D30004C6900EBC404C4F840320C89CB6864F3FE
:100D40001F434C6900EBC404C4F844328B69002B88
:100D5000D0F804320ED01343C0F804320B69002BD4
:100D6000D0F8143208D01343C0F81432096A0129AC
:100D700004D008E09343EFE79343F5E7D0F81C1263
:100D80001143C0F81C12D0F8001221F00101C0F884
:100D90000012002010BD000000640040704730B514
:100DA00090F82040012C05D0022C03D0416A41F478
:100DB00080215DE00468002955D02469A40754D03F
:100DC0004FF4D874056804EB01142D5915F004058F
:100DD000956005682D594ED0ED08556005682C5971
:100DE00004F00204D4604FF4DA74056804EB0114D3
:100DF0002D5905F00F05156105682D59C5F3072517
:100E0000956105682C59240C54614FF4DC72046818
:100E100002EB0112A4581C700468A458240A5C70E8
:100E20000468A458240C9C700468A258120EDA704E
:100E30004FF4DE72046802EB0112A4581C710468BE
:100E4000A458240A5C710468A458240C9C7104689A
:100E5000A258120EDA71006881B1016941F02001D7
:100E60000161002030BDE468A8E7416A41F4001147
:100E70004162012030BD6D0D1560AFE7C16841F0E2
:100E80002001C160EDE72DE9F05F05460068002410
:100E90004669D0F804908768D0F80CB0D0F810A05C
:100EA000D0F81880F10748D0F90714D001218160EB
:100EB000B80703D5284600F046FA0CE0780702D5BB
:100EC0004FF4006407E0380702D54FF4805402E085
:100ED000284600F037FAF80516D529684FF48070D7
:100EE0008860B80503D5284600F02FFA0CE0780595
:100EF00002D544F4005407E0380502D544F4804498
:100F000002E0284600F020FAF80316D529684FF4CD
:100F100080308860B80303D5284600F018FA0CE04A
:100F2000780302D544F4004407E0380302D544F4C2
:100F3000803402E0284600F009FA300707D55FEA5E
:100F4000CB6004D52968102044F40074C860700791
:100F50004FF0080707D55FEA0B7004D52868C76013
:100F6000284600F057F9B00706D52868C068800702
:100F700002D0284600F050F9700607D55FEACA6033
:100F800004D52968102044F480640861B00607D5B0
:100F90005FEA0A7004D528680761284600F0A2F9C4
:100FA000F00606D528680069800702D0284600F0C0
:100FB0009AF9B00308D55FEAC96005D52968102001
:100FC0004860284600F090F9F00307D55FEA097001
:100FD00004D528684760284600F0BAF9300446D5A1
:100FE0005FEA497040D5F00504D55FEAC87001D0CA
:100FF00044F00104B00504D55FEA887001D544F0DF
:101000000204700504D55FEA487001D544F0040479
:10101000300529D518F0700F26D008F07000402850
:1010200015D006DC102809D020280AD0302816D187
:101030000AE050280ED0602811D10EE044F00804D8
:101040000DE044F010040AE044F0200407E044F00E
:10105000400404E044F0800401E044F48074286813
:10106000816921F070018161296804204860002CA9
:1010700005D0686A204368622846FFF78FFEBDE806
:10108000F09F70B5040003D094F8200010B104E084
:10109000012070BD204600F081F82068016821F031
:1010A0000201016000F0E2FA0546052604E000F0C6
:1010B000DDFA401B0A2811D8206840688007F6D462
:1010C0002068016841F00101016000F0CFFA054697
:1010D0000BE000F0CBFA401B0A2806D9606A40F406
:1010E0000030606284F82060D2E720684068C00762
:1010F000EFD0207E0128206801683DD021F08001DA
:101100000160607E01282068016838D021F040012C
:101110000160A07E01282068016833D021F0200101
:101120000160E07E0128206801682ED041F01001A6
:101130000160207F01282068016829D021F0080182
:101140000160607F01282068016824D021F004013B
:101150000160D4E902010843D4E9041211430843B1
:101160006168491E08432168C8610020606201204F
:1011700084F82000002070BD41F08001C0E741F0FC
:101180004001C5E741F02001CAE721F01001CFE797
:1011900041F00801D4E741F00401D9E710B586B069
:1011A000044614216846FFF7C9F8174920688842A9
:1011B00027D116480021026842F0007202600068E0
:1011C00000F00070059011481038026842F00802E3
:1011D00002600068022200F0080005900320CDE9BB
:1011E0000210CDE90002092004906946084800F089
:1011F0001BF900220621142000F0C4FA142000F08C
:10120000B3FA06B010BD0000006400404038024050
:10121000000C02407047000010B52C4B2C4A0021F6
:10122000FFF7BDFD2A482A49026828483431A2F553
:101230000072013A0AD0012A18D0022A26D0032AC5
:1012400034D0BDE8104023A002F088BC0278437877
:1012500003EB02220A808278C37803EB02224A80E1
:101260000279407900EB0220888010BD0278437833
:1012700003EB0222CA808278C37803EB02220A8140
:101280000279407900EB0220488110BD0278437852
:1012900003EB02228A818278C37803EB0222CA819F
:1012A0000279407900EB0220088210BD0278437871
:1012B00003EB02224A828278C37803EB02228A82FD
:1012C0000279407900EB0220C88210BD1C0000208A
:1012D000F4010020726563697665204552524F52D1
:1012E0000D0A0000704770477047000070B5044653
:1012F00090F82000012804D0606A40F40020606269
:1013000018E0022084F820002068016821F0010123
:10131000016000F0ABF905460EE000BF00F0A6F951
:10132000401B0A2808D9606A40F40030606205203A
:1013300084F82000012070BD20684068C007EDD10E
:10134000606270BD70477047704770477047704764
:1013500070472DE9F0410446876D00F087F9064695
:1013600094F835000025022806D08020606584F8B6
:1013700034500120BDE8F0812068016821F0160199
:1013800001602068416921F080014161206C08B949
:10139000A06C20B12068016821F00801016020687C
:1013A000016821F0010101600BE000F05FF9801B92
:1013B000052806D92020606504F8345F032060709A
:1013C000D8E720680068C007EFD194F85C103F2090
:1013D0008840B86004F8345F012060700020C9E7DD
:1013E00090F83510022903D0802141650120704713
:1013F000052180F835100068016821F001010160C5
:101400000020704770B5044600F030F90546601CB6
:1014100002D004480078044400F028F9401BA042A0
:10142000FAD370BDA40000202DE9F84FDFF8F4A135
:10143000002201240AF1040B03254FF00F090BF1E0
:10144000040E00BF0B6804FA02F63340B3426FD1BA
:101450000F7907F00307012F01D0022F16D18768FB
:101460004FEA420805FA08FC27EA0C07D1F80CC03D
:101470000CFA08FC4CEA070CC0F808C04768B743F0
:101480000E79C6F3001696403E4346600E79F64349
:10149000B6070AD0C7684FEA420C05FA0CF6B74304
:1014A0008E6806FA0CF63E43C6600E7906F0030617
:1014B000022E10D1D60800EB8608D8F82060570716
:1014C0004FEAD76C09FA0CF7BE430F6907FA0CF71D
:1014D0003743C8F8207006684FEA420C05FA0CF74B
:1014E000BE430F7907F0030707FA0CF7374307608D
:1014F0004E68F6001CD54C4E376847F4804737607D
:10150000366822F0030706F480460096474E07EB44
:10151000060CDCF8086897073F0F09FA07F826EA77
:101520000806DFF80C81404503D14FF0000841E088
:1015300072E0DFF80081404502D14FF0010839E048
:10154000DFF8F480404502D14FF0020832E0DFF8C6
:10155000EC80404502D14FF003082BE0DFF8E0803B
:10156000404502D14FF0040824E0DFF8D880404520
:1015700002D14FF005081DE0DFF8CC80404502D1D4
:101580004FF0060816E0DFF8C480404502D14FF066
:1015900007080FE0DFF8B880404502D14FF0080897
:1015A00008E0DFF8B080404502D14FF0090801E0C3
:1015B0004FF00A0808FA07F848EA0608CCF8088845
:1015C000DAF800605746D1F804C09E435FEACC3C8D
:1015D00000D51E433E60DBF800605F46D1F804C0D2
:1015E0009E435FEA8C3C00D51E433E60DEF80060FF
:1015F0007746D1F804C09E435FEACC2C00D51E4349
:101600003E60084F0C373E68D1F804C09E435FEA45
:101610008C2C00D51E433E60521C102AFFF412AFE2
:10162000BDE8F88F003C01404438024000300140E2
:10163000000002400004024000080240000C02408A
:10164000001002400014024000180240001C02403A
:1016500000200240002402400069084000D0012020
:1016600070470AB1816170470904FBE7014880684F
:1016700070470000A40000200248816802781144ED
:1016800081607047A40000200B4810B5016841F448
:1016900000710160016841F480610160016841F4FA
:1016A00080710160032000F08DF8002000F006F842
:1016B00000F03EF8002010BD003C024010B501468D
:1016C00088B00022192000F05DF8192000F04CF8D5
:1016D00013480024016841F001010160006805A978
:1016E00000F001000690684600F050F900F07EF925
:1016F0000C494000B0FBF1F10C480B4A491E026056
:1017000040F2E732C0E90324C0E9011400F050FDC3
:1017100010B1012008B010BD044800F0B5FDF9E794
:101720004438024040420F0000000140E80500201C
:101730000C4882B0016841F480410160006800F407
:10174000804000900748001F016841F0805101600F
:101750000068002200F0805000900F21901E02B01F
:1017600000F010B844380240002809DB00F01F02E6
:10177000012191404009800000F1E020C0F80011F3
:1017800070470000F0B40E4B1B680C46C3F30223F5
:10179000C3F10705042D00D90425191D072901D21D
:1017A000002300E0DB1E012606FA05F1491E214058
:1017B00099409E40761E16403143F0BC02F0F6B9C7
:1017C0000CED00E0064900F0070208684FF6FF0341
:1017D000184040EA0220034A1043086070470000A6
:1017E0000CED00E00000FA052DE9F8431748016808
:1017F00041F0805101600068154F00F080500126D3
:1018000000903E64FFF732FF05464FF47A78114CA2
:1018100005E000BFFFF72AFF401B40450DD8606878
:10182000C003F7D57E64FFF721FF0546464607E073
:10183000FFF71CFF401BB04202D90320BDE8F8832C
:1018400060688003F4D50020F8E7000040380240CB
:1018500000000E42007000402DE9F0470E460500E2
:1018600065D0DFF81481D8F80000F7B200F00F005F
:10187000B04207D288F80070D8F8000000F00F00DE
:10188000B04254D128683D4C810712D5400703D59A
:10189000206840F4E05020602878000703D52068D5
:1018A00040F4604020602068A96820F0F000084300
:1018B00020602878C0072DD0304968680839012891
:1018C00012D0022813D0032811D0096889070029F3
:1018D0002DDA216821F0030101432160FFF7C6FEE4
:1018E000814641F2883A0EE009688903EFE709680A
:1018F0008901ECE7FFF7BAFEA0EB0901514502D9D7
:101900000320BDE8F0872068696800F00C00B0EBA8
:10191000810FEFD1D8F80010404601F00F01B1421D
:1019200007D90770006800F00F00B04201D0012015
:10193000E7E72878400705D52068E96820F4E050FB
:10194000084320602878000706D52068296920F41C
:10195000604040EAC100206000F058F82168084A61
:10196000C1F30311515CC84006490860064800688D
:10197000FFF7A4FE0020C4E7003C02400838024004
:10198000D86E0008B0000020A80000200F220260DE
:101990000C4A136803F003034360136803F0F00379
:1019A0008360136803F4E053C36012684FF4E0539C
:1019B00003EAD20202610448006800F00F000860E8
:1019C0007047000008380240003C024004480549C6
:1019D00000680968044AC1F38221515CC84070471D
:1019E000B000002008380240E86E000804480549AD
:1019F00000680968044AC1F34231515CC84070472D
:101A0000B000002008380240E86E0008154810B504
:101A1000006810F00C02144813D01449042A0FD0A7
:101A2000082A0ED10F4C241F2268236802F03F02BF
:101A30005B0207D52068C0F38810A0FB010106E017
:101A4000084610BD2168C1F38811A1FB00010023E5
:101A5000FEF72AFC2168C1F30141491C4900B0FB93
:101A6000F1F010BD083802400024F400001BB7005C
:101A70002DE9F84F04006ED02078DFF84C93C007B2
:101A8000A9F104054AD009F104000168C1F38101FC
:101A9000012908D00068C0F3810002280AD1D9F8D2
:101AA0000000400206D52868800337D5606800280A
:101AB000E1D033E06068B0F5803F10D0B0F5A02FE2
:101AC000286810D020F480302860286820F4802016
:101AD00028606068A8B1FFF7C9FD06460DE02868D8
:101AE00040F48030F4E740F480202860F7E700BF3E
:101AF000FFF7BCFD801B642873D828688003F7D5E6
:101B00000CE0FFF7B3FD064605E000BFFFF7AEFDB2
:101B1000801B6428F0D828688003F7D42078DFF889
:101B2000AC8280074FF0000A3ED5A748001D01682F
:101B300011F00C0F08D00068C0F3810002280BD10F
:101B4000D9F80000400207D42868800716D5E0685D
:101B5000012800D112E033E1E068B8B10120C8F8F3
:101B60000000FFF783FD064605E000BFFFF77EFD9E
:101B7000801B0228C0D828688007F7D5286821690B
:101B800020F0F80040EAC10028600DE0C8F800A08D
:101B9000FFF76CFD064604E0FFF768FD801B022896
:101BA0001FD828688007F7D42078000722D5864FF1
:101BB00087486169703771B101210160FFF756FDF7
:101BC000064604E0FFF752FD801B022809D838685A
:101BD0008007F7D50EE0C0F800A0FFF747FD0646E6
:101BE00005E082E0FFF742FD801B02287DD83868BF
:101BF0008007F7D42078400768D5DFF8CCB10027FC
:101C00000BF13C0BDBF80000C0000BD4DBF800103C
:101C100041F08051CBF80010DBF80000012700F004
:101C2000805000906B4E3068C00510D4306840F48E
:101C300080703060FFF71AFD009005E0FFF716FD99
:101C40000099401A022850D83068C005F6D55E4E7B
:101C5000A0686C3601280FD00528306810D020F01D
:101C600001003060306820F004003060A068B8B136
:101C7000FFF7FCFC00900FE0306840F00100F4E753
:101C800040F004003060F7E7FFF7F0FC0099411ADC
:101C900041F28830814266D830688007F4D50EE082
:101CA000FFF7E4FC009007E0FFF7E0FC0099411A21
:101CB00041F28830814256D830688007F4D42FB181
:101CC000DBF8001021F08051CBF80010A069C8B3F8
:101CD0003D49091D0968C1F3810102294AD0022842
:101CE000504607D0C8F8600000E03CE0FFF7BEFCBB
:101CF00004463BE04746C8F86000FFF7B7FC0646DD
:101D000005E000BFFFF7B2FC801B02282BD8286833
:101D10008001F7D4D4E907010843A16A2E4A490893
:101D200002EB0141626A41EA8211084394F82C10E7
:101D300040EA0161C9F8001001203866FFF796FCFF
:101D4000044606E03EE000BFFFF790FC001B0228BF
:101D500009D828688001F7D534E000BFFFF786FC7A
:101D6000001B022802D90320BDE8F88F28688001F3
:101D7000F4D427E00128F7D0D9F80000E26900F494
:101D8000800191421CD1226A00F03F01914217D19B
:101D900047F6C071626A0140B1EB821F10D1A26A9E
:101DA0004FF0FF3300F4403103EB5202B1EB024F2E
:101DB00006D194F82C1000F07060B0EB016F01D0E8
:101DC0000120D1E70020CFE704380240000047425D
:101DD000800E4742007000400000FFFF70B5040015
:101DE00009D0606A002540B125616561A56294F85B
:101DF000510040B10CE0012070BD6068B0F5827FF9
:101E0000F4D0E561F2E784F85050204600F044F841
:101E1000022084F851002068016821F0400101602F
:101E2000A088218900F4827001F404410843A1894B
:101E300001F400610843217C01F002010843217D87
:101E400001F001010843218B01F400710843217F57
:101E500001F03801084394F8201001F08001084394
:101E6000218D01F40051084321680860A069042114
:101E700001EA104094F8241001F010010843216891
:101E800048602068C16921F40061C1616565012075
:101E900084F85100002070BD00B500680E4987B07D
:101EA000884217D10D480021026842F48012026076
:101EB000006800F4801005904FF4607000900220DC
:101EC000CDE90101032003900520049069460448F0
:101ED000FFF7AAFA07B000BD0050014044380240A5
:101EE000001402402DE9F84F044690F850000027F6
:101EF0000A9E1D4692468B464FF0010901280ED0DE
:101F0000012084F85000FFF7B1FB804694F851009F
:101F1000616801280CD0B1F5827F07D102E0022070
:101F2000BDE8F88FA16809B9042801D00227C2E0F2
:101F3000BBF1000F27D0BAF1000F24D01DB394F8E5
:101F40005100042802D0052084F85100002060656B
:101F5000C4F838A0E587A587C4F830B0E586A58623
:101F60002064606420680168490603D4016841F078
:101F700040010160E068B0F5006F606805D0E8B32B
:101F8000012D46D07FE0012795E008B1012D39D120
:101F9000206B21680088C860206B801C2063E08E65
:101FA000401EE0862EE02068816889070FD5E18E0B
:101FB00069B1B9F1010F0AD1216B0988C160206BA9
:101FC000801C2063E08E401EE0864FF000092068F0
:101FD0008168C9070CD0E18F51B1C068A16B08803E
:101FE000A06B801CA063E08F401EE0874FF00109CA
:101FF000FFF73CFBA0EB0800B04200E009E001D392
:10200000701C50D1E08E0028CDD1E08F0028CAD1BD
:102010003FE0206B216800780873206B401C206330
:10202000E08E401EE0862EE02068816889070FD58B
:10203000E18E69B1B9F1010F0AD1216B0978017301
:10204000206B401C2063E08E401EE0864FF00009AC
:1020500020688168C9070CD0E18F51B1C068A16BBD
:102060000870A06B401CA063E08F401EE0874FF01B
:102070000109FFF7FBFAA0EB0800B04202D3701C85
:1020800001D010E07EB1E08E0028CDD1E08F002895
:10209000CAD142463146204601F07CF928B10127D9
:1020A0002020606507E0032705E0A06818B92068D4
:1020B000C16880680090012084F85100002084F8F5
:1020C000500038462CE77047704710B590F83C2018
:1020D000012A22D0012280F83C20CA688C6822F4B0
:1020E000407222434C6822F4806222430C6822F43E
:1020F000006222430C6922F4805222434C6922F48C
:1021000000522243C969002322F480420A43016835
:102110004A6480F83C30002010BD022010BD000051
:1021200070B590F83C20012A32D0012480F83C4060
:10213000022280F83D2003685A689D6822F07006EC
:102140000A6832435A60134B02689A4214D0B2F1C3
:10215000804F11D0104B9A420ED0104B9A420BD0A8
:102160000F4B9A4208D00F4B9A4205D00E4B9A4221
:1021700002D00E4B9A4204D1496825F080031943DE
:10218000916080F83D40002180F83C10084670BD09
:10219000022070BD00000140000400400008004023
:1021A000000C0040000401400040014000180040C5
:1021B00010B5040003D094F83D0010B107E00120F1
:1021C00010BD002084F83C00204600F01FF80220DB
:1021D00084F83D00211D206801F014FA012084F8E4
:1021E000460084F83E0084F83F0084F8400084F8FC
:1021F000410084F8420084F8430084F8440084F8E5
:10220000450084F83D00002010BD000008B50168BD
:102210001A48B1F1804F14D0194A914220D1016877
:1022200041F0020101600068002200F0020000900D
:1022300005211D20FFF7A6FA1D20BDE80840FFF785
:1022400093BA016841F0010101600068002200F0CA
:102250000100009005211C20FFF794FA1C20ECE7F8
:102260000848814209D10548001D016841F002017A
:102270000160006800F00200009008BD4038024094
:10228000000400400004014090F83D10012901D0F5
:1022900001207047022180F83D100168CA6842F0B1
:1022A0000102CA6000681149884214D0B0F1804F21
:1022B00011D00F4988420ED00E4988420BD00E49EA
:1022C000884208D00D49884205D00D49884202D085
:1022D0000C49884204D1816801F00701062903D026
:1022E000016841F0010101600020704700000140D9
:1022F0000004004000080040000C004000040140C1
:10230000004001400018004070B5044690F83C00C1
:10231000012817D0012584F83C50022084F83D00A4
:102320002068826822F0770222F47F428260086887
:10233000502830D00DDC20284DD005DC98B3102873
:102340003BD148E0022070BD302844D0402834D131
:1023500039E0602828D0702806D0B0F5805F2CD0F6
:10236000B0F5005F29D10AE0CB68D1E901212068EE
:1023700001F0B9F92068816841F0770109E0CB6884
:10238000D1E90121206801F0AEF92068816841F4AB
:102390008041816011E0CA684968206801F078FADC
:1023A0005021206807E016E0CA684968206801F0FB
:1023B00080FA6021206801F0A0F984F83D500020E7
:1023C00084F83C0070BDCA684968206801F060FA72
:1023D00040212068EFE7226801461046EBE770478E
:1023E00070B50446006801694FF00005C9438907CC
:1023F00015D4C168C943890711D4E91E01610120C0
:102400002077206880698007204602D0FFF7E7FF29
:1024100004E000F0C3F8204600F052F92577206868
:102420000169C943490717D4C168C943490713D48F
:102430006FF004010161022020772068806910F4A8
:10244000407F204602D0FFF7CAFF04E000F0A6F864
:10245000204600F035F9257720680169C94309074E
:1024600016D4C168C943090712D46FF0080101618D
:10247000042020772068C0698007204602D0FFF73B
:10248000AEFF04E000F08AF8204600F019F9257745
:1024900020680169C943C90617D4C168C943C90680
:1024A00013D46FF010010161082020772068C06903
:1024B00010F4407F204602D0FFF791FF04E000F0C7
:1024C0006DF8204600F0FCF8257720680169C943C3
:1024D000C90708D1C168C943C90704D1891E016170
:1024E000204600F067F920680169C943090609D44C
:1024F000C168C943090605D46FF080010161204617
:10250000FFF7E1FD20680169C943490609D4C168A4
:10251000C943490605D46FF040010161204600F02F
:1025200053F920680169C94389060BD4C168C943BE
:10253000890607D46FF0200101612046BDE8704094
:10254000FFF7C2BD70BD000010B586B0044614216F
:102550006846FDF7F3FE0E492068884215D10D4804
:102560000021026842F480720260006800F480700A
:102570000590E42000900220CDE9010103200390A2
:10258000049069460448FEF74FFF06B010BD0000F6
:10259000000401403038024000200240704770B50E
:1025A000044690F83C000D4601280AD0012084F82A
:1025B0003C0042B1042A18D0082A2AD00C2A4DD156
:1025C00039E0022070BD206801F0A0F82068816920
:1025D00041F0080181612068816921F00401816175
:1025E000206881692A69114311E0206801F0BEF872
:1025F0002068816941F4006181612068816921F46A
:1026000080618161206881692A6941EA02218161D2
:1026100024E0206801F0E0F82068C16941F0080179
:10262000C1612068C16921F00401C1612068C169EC
:102630002A69114311E0206801F002F92068C1699C
:1026400041F40061C1612068C16921F48061C16108
:102650002068C1692A6941EA0221C161002084F829
:102660003C0070BD10B5040003D094F83D0010B1DB
:1026700007E0012010BD002084F83C00204600F057
:102680001EF8022084F83D00211D206800F0BAFFEA
:10269000012084F8460084F83E0084F83F0084F866
:1026A000400084F8410084F8420084F8430084F834
:1026B000440084F8450084F83D00002010BD7047B8
:1026C0007047000010B50446022249B1042912D017
:1026D00008291CD094F84100012823D0012010BD06
:1026E00094F83E000128F9D184F83E202068C268A1
:1026F00042F0020209E094F83F000128EED184F88C
:102700003F202068C26842F00402C2600EE094F8E4
:1027100040000128E2D184F840202068C26842F0DD
:102720000802F2E784F841200C2930D00122206809
:1027300000F0CCFF18492068184A884201D0904226
:1027400003D1436C43F4004343642068884213D0B0
:10275000B0F1804F10D0124988420DD01149884203
:102760000AD01149884207D0904205D00F498842CB
:1027700002D00F49884204D1816801F0070106297F
:1027800003D0016841F001010160002010BD206804
:10279000C26842F01002B8E70000014000040140A6
:1027A0000004004000080040000C004000400140D0
:1027B0000018004000680349884201D1FEF75CBF61
:1027C00070470000000001407047704770470000EC
:1027D000F8B5026804461068D168536910F00F0F0D
:1027E0004FF0000553D003F0010601F49077374312
:1027F0005FD0C20705D0CA0503D5226C42F00102A2
:102800002264420705D5DA0703D0226C42F00202A7
:102810002264820705D5DA0703D0226C42F0040255
:102820002264020707D501F02002324303D0226C54
:1028300042F008022264226C002A34D0800604D5BB
:10284000880602D5204601F066F820684069216CB0
:10285000C0F38010090700D430B3204601F043F8DC
:102860002068416949061BD5416921F04001416159
:10287000A06BA8B159490165A06BFEF7B1FD002816
:1028800011D0A06B016D01B0BDE8F0400847830690
:102890000FD58B060DD52046BDE8F84001F03BB8BA
:1028A0002046FFF793FFF8BD2046FFF78FFF256412
:1028B000F8BD266B2023012E53D1C60651D5CE0676
:1028C0004FD5106850680090506940062BD5A16B19
:1028D000086840680004000CEAD0A68D8642E7D95B
:1028E000E085C869B0F5807F18D0D06820F480708A
:1028F000D0602068416921F001014161206841698F
:1029000021F04001416184F83E3025632068C168B0
:1029100021F01001C160A06BFEF71BFDA08DE18DC1
:10292000401A81B219E0A08DE18D401A81B2E08D8C
:102930000028BDD00029BBD0D06820F49070D060B2
:102940002068426922F00102426184F83E3025632A
:102950002068C26822F01002C2602046FFF735FFEF
:10296000F8BD05062BD50D0629D594F83D00212884
:10297000F6D1A068B0F5805F01D12069B0B1206ABE
:10298000411C2162216800784860E08C401E0004F0
:10299000000CE084E4D12068C16821F08001C160AE
:1029A0002068C16841F04001C160F8BD206A00881C
:1029B000C0F308005060206A801C2062E5E74006F2
:1029C000F3D54806F1D5D168204621F04001D16009
:1029D00084F83D3000F0CDF8F8BD0000D73800088D
:1029E00070B5040004D094F83D00002510B106E055
:1029F000012070BD84F83C50204600F023F82420CC
:102A000084F83D002068C16821F40051C16020466F
:102A100000F0D8FF2068016921F49041016120682D
:102A2000416921F02A0141612068C16841F40051E7
:102A3000C1602564202084F83D0084F83E00002019
:102A400070BD000010B586B0044614216846FDF73D
:102A500075FC17492068884228D116480021026871
:102A600042F400320260006800F400300590114822
:102A70001038026842F008020260006800F00800A6
:102A80000590602000900220CDE901010320039011
:102A90000720049069460848FEF7C6FC002206217C
:102AA0002620FEF76FFE2620FEF75EFE06B010BD64
:102AB0000044004040380240000C024070470000D3
:102AC0002DE9F843044690F83D001F4616460D4692
:102AD00020284CD1C5B1BEB194F83C00012846D0A5
:102AE000012084F83C004FF00008C4F84080212009
:102AF00084F83D00FEF7BAFDA6848146E684A0680E
:102B0000B0F5805F03D004E00120BDE8F8832069C0
:102B100028B12E465FF0000584F83C800EE00026C8
:102B2000FAE78021204600F0D3FFA0B9AEB116F835
:102B3000010B21684860E08C401EE084E08C4B462D
:102B40004FF0000200970028EBD14FF040012046E3
:102B500000F0BEFF30B10320D7E735F8020BC0F319
:102B60000800E6E7202084F83D000020CDE70220A1
:102B7000CBE77047FEE70000DFF89CA14FF0FF3B7A
:102B80002DED028BDFED658A654D4FF00008A5F154
:102B90006809A5F134049FED638AA4F168075946DA
:102BA0005646DAF8040003F0B1FE0128F7D15E4979
:102BB000B068884208DC9FED5D0A85ED000A9FED54
:102BC0005C0A84ED000A03E085ED008A84ED008A4A
:102BD00053484E466830B0F9021000EE101AB8EEB5
:102BE000C00A87ED010AB0F9080000EE100AF8EEFD
:102BF000C00AC9ED010A95ED011A95ED000A31EE02
:102C0000400ABDEEC00A10EE100A002800DA404269
:102C1000142806DD80EEA80A30EE010A85ED010ACF
:102C200001E085ED018A94ED011A94ED000A31EE80
:102C3000400ABDEEC00A10EE100A002800DA404239
:102C4000142806DD80EEA80A30EE010A84ED010AA0
:102C500001E084ED018A3248343800F091FA3048BE
:102C600000F08EFAB4F9200000EE100AB8EEC00AA7
:102C700087ED000AB5F9200000EE100A2848B8EEEA
:102C8000C00A9C3886ED000A00F07AFA24486838B9
:102C900000F076FA95ED010AD5ED000A30EE600AF3
:102CA000BDEEC00A10EE100A002800DA40421428D7
:102CB0000FDC85ED008A85ED018AA5F8208085ED81
:102CC000078A86ED008A86ED018AA6F8208086EDC7
:102CD000078A94ED010AD4ED000A30EE600ABDEED9
:102CE000C00A10EE100A002800DA404214280FDC57
:102CF00084ED008A84ED018AA4F8208084ED078A9F
:102D000087ED008A87ED018AA7F8208087ED078A82
:102D1000FDF776FE43E700000000002000401C465F
:102D2000C001002000000000000040400000C8C2B8
:102D30000000C84210B522488AB020490160052130
:102D40000024C0E901144FF48021C0E90341C90007
:102D50004161047644768476C47604774477FEF73E
:102D600090F908B1FDF712FF16480168490100917A
:102D7000416849010191816849010291C068694631
:102D80004001CDE903040120CDE90540CDE907402C
:102D90000B48FDF77DFF08B1FDF7F8FE0848FEF788
:102DA000A5FA08B1FDF7F2FE02210548FDF7F0FE95
:102DB000002801D0FDF7EAFE0AB010BD0064004013
:102DC000A40400202C00002010B59CB00322002198
:102DD000012003F0E7FC1C4C1C221C496060684683
:102DE000FDF793FA0021684602F082FF1749E06080
:102DF0001C221C3107A8FDF788FA002107A802F061
:102E000077FF124960611C2238310EA8FDF77DFA68
:102E100000210EA802F06CFF0C4920611C225431E5
:102E200015A8FDF772FA002115A802F061FFA06154
:102E30000748FFF729FA0748FFF726FA0C2106484A
:102E4000FFF740FC1CB010BD00000020546E0008CD
:102E5000CC040020140500205C05002070B586B06D
:102E600014216846FDF76AFA2C480024016841F0F5
:102E700001010160016801F001010591016841F063
:102E800008010160016801F008010591016841F441
:102E900080710160016801F480710591016841F061
:102EA00080010160016801F080010591016841F035
:102EB0002001016000681A4E00F0200005900122F8
:102EC00028213046FEF7CDFB002210213046FEF7C8
:102ED000C8FB38200125CDE900050320CDE90240DB
:102EE00069463046FEF7A0FA0620CDE9000469469F
:102EF0000C480294FEF798FA0B4E0122402130460E
:102F0000FEF7AFFB40200090CDE901546946304602
:102F10000394FEF789FA06B070BD00003038024015
:102F2000001C024000000240001402400E4810B590
:102F30000C4901604FF48271416000218160C160E1
:102F40004FF400720161C0E905123022C0E9072187
:102F5000416281620A21C162FEF740FF002800D071
:102F6000FEE710BD005001409406002010B586B069
:102F700000241748009401940294039404944FF0A1
:102F80008041059401600421C0E901144AF6C7712B
:102F9000C0E9031480218161FFF70AF908B1FDF748
:102FA000F5FD4FF48050009069460948FFF7ACF9F1
:102FB00008B1FDF7EBFD049404A905480594FFF75B
:102FC000AFF8002801D0FDF7E1FD06B010BD00000C
:102FD000CC04002010B586B000241748009401945A
:102FE0000294039404941349059401600421C0E9F8
:102FF00001144AF6C771C0E9031480218161FFF70B
:10300000D7F808B1FDF7C2FD4FF480500090694633
:103010000948FFF779F908B1FDF7B8FD049404A950
:1030200005480594FFF77CF8002801D0FDF7AEFDB8
:1030300006B010BD000400401405002010B596B085
:1030400000240F9410941194129413941C21684638
:103050001494FDF773F9202107A8FDF76FF935489F
:10306000334901603B21C0E901144EF65F21C0E9FC
:1030700003148021C0E90541FFF79AF808B1FDF774
:1030800085FD4FF480500F900FA92A48FFF73CF9B7
:1030900008B1FDF77BFD2748FFF7E4FA08B1FDF71B
:1030A00075FD139413A923481494FFF739F808B158
:1030B000FDF76CFD6020CDE90004029403940494B4
:1030C0000594002269461B480694FFF768FA08B188
:1030D000FDF75CFD042269461648FFF760FA08B167
:1030E000FDF754FD082269461248FFF758FA08B167
:1030F000FDF74CFD0C2269460E48FFF750FA08B167
:10310000FDF744FD0794089409944FF400500A9485
:10311000CDE90B4007A907480E94FEF7D6FF08B18A
:10312000FDF734FD0348FFF70FFA16B010BD00009D
:10313000000401405C0500200C4810B50A490160FC
:103140004FF4E1314160002181600C22C160C0E98F
:1031500004128161C161FFF743FC002803D0BDE880
:103160001040FDF713BD10BD00440040A405002031
:10317000FEE74FF4FA74204602F0AEFDFBE7FEE7EF
:1031800090EC020A70EE600AC0ED020A90ED070AA8
:1031900030EE200A80ED070A90ED041AD0ED051AF2
:1031A00090ED062A21EE201A01EE801AD0ED031AC6
:1031B00070EEE11A02EE211ABDEEC11A11EE101ADC
:1031C00009B20184C0ED030A002901DD0A4600E0CE
:1031D0004A4200EE902AB8EEE01AD0ED0A0AB4EEA8
:1031E000E01AF1EE10FA08DD002901DCF1EE600AC8
:1031F000FDEEE00A10EE901A0184B5EEC00AF1EE81
:1032000010FA02DDB0EE401A01E0B1EE401AD0ED46
:10321000090AB4EEE01AF1EE10FA06DDB5EEC00AC6
:10322000F1EE10FA02DDC0ED070A7047B1EE600A58
:1032300080ED070A704700009FED100AF6EE080ABD
:1032400080ED000A80ED010A80ED020A80ED030A9C
:1032500080ED070AC0ED040ADFED090A0021C0ED88
:10326000050A80ED060A9FED070A018480ED090A30
:103270009FED050A80ED0A0A70470000000000007B
:103280008FC2753D0000FA4400803B451149F2EEC3
:10329000000A91ED010A002180ED000A9FED0E0A5F
:1032A00080ED010A80ED020A80ED030A80ED070A35
:1032B000C0ED040AF7EE080AC0ED050A80ED060A23
:1032C0009FED060A018480ED090A9FED050A80ED55
:1032D0000A0A70479C000020000000000000FA4429
:1032E00000007A459FED100AF6EE080A80ED000A0C
:1032F00080ED010A80ED020A80ED030A80ED070AE5
:10330000C0ED040ADFED090A0021C0ED050A80EDD9
:10331000060A9FED070A018480ED090A9FED050A60
:1033200080ED0A0A70470000000000008FC2753D62
:103330000000FA4400803B451249F2EE000A91ED8C
:10334000000A0021B1EE400A80ED000A9FED0E0A4E
:1033500080ED010A80ED020A80ED030A80ED070A84
:10336000C0ED040AF7EE080AC0ED050A80ED060A72
:103370009FED060A018480ED090A9FED050A80EDA4
:103380000A0A70479C000020000000000000FA4478
:1033900000007A4538B504461248134B0068B0FB6C
:1033A000F3F04FF47A73584300906068B0F5827F71
:1033B0000DD10B46009200228021204600F016F825
:1033C00070B1606D40F020006065032038BD00984A
:1033D00030B1401E009020688068C0430006F6D5DA
:1033E000002038BDB000002000366E012DE9F84302
:1033F0001E46914688460446089DFEF737F9401B55
:10340000351AFEF733F9074625480068C0F3CB307C
:10341000684338E0701C37D0FEF728F9C01BA8427B
:1034200003D215B1009860B32CE02068416821F008
:10343000E00141606068B0F5827F0BD1A068B0F513
:10344000004F02D0B0F5806F04D12068016821F0F0
:1034500040010160A06AB0F5005F09D120680168F1
:1034600021F4005101602068016841F400510160BD
:10347000012084F85100002084F850000320BDE8AA
:10348000F8830025401E00902068816838EA01001A
:1034900004D000214945BDD10020F0E70121F9E722
:1034A000B0000020024841F28A110160FDE70000EF
:1034B0004004014010B5502080F31188BFF34F8FB6
:1034C000BFF36F8F03F07EFB18B104494FF08050BB
:1034D0000860002080F3118810BD000004ED00E0BA
:1034E00030B593B030216846FCF728FF14210CA8B2
:1034F000FCF724FF20480025016841F0805101605D
:10350000006800F0805011901C48016841F440416F
:1035100001600068022400F44040119001200390F3
:1035200010200490009406940820CDE90750B420A0
:10353000CDE9090404200B906846FEF799FA08B11A
:1035400072B6FEE7FEF750F908B172B6FEE70CA9B5
:103550000F2081E831004FF4A0500F904FF48050BD
:10356000109005210CA8FEF777F9002801D072B65B
:10357000FEE713B030BD000040380240007000404C
:103580000248016841F470010160704788ED00E075
:103590000148FEF725BF0000E805002038B50020EF
:1035A00000905020EFF3118480F31188BFF34F8F08
:1035B000BFF36F8F05486946006803F059F9044866
:1035C000FEF70EFF84F3118838BD000004000020D0
:1035D000CC04002010B55020EFF3118480F3118843
:1035E000BFF34F8FBFF36F8F02F0D0F901F080FC73
:1035F00001F0D4FE0248FEF7F3FE84F3118810BDFB
:1036000014050020F0B50268254C264D264E274FA4
:10361000274B4FF0804CA04209D0604507D0A8420C
:1036200005D0B04203D0B84201D0984204D122F074
:10363000700E4A6842EA0E02A0421BD0604519D0C3
:10364000A84217D0B04215D0B84213D0984211D03A
:10365000184DA8420ED0184DA8420BD0174DA842C5
:1036600008D0174DA84205D0164DA84202D0164DDD
:10367000A84203D122F44075CA682A434D6922F05A
:1036800080022A4302608A68C2620A688262A0429B
:1036900001D0984201D10969016301214161F0BD66
:1036A000000001400004004000080040000C004001
:1036B0000004014000400140004401400048014036
:1036C00000180040001C00400020004010B501F030
:1036D0001F030121046A99408C430462016A9A40E5
:1036E0001143016210BD10B5846842EA032224F43C
:1036F0007F440A432243826010BD826822F0700238
:103700000A4342F00701816070470000F0B5026A89
:1037100022F001020262036A42688469124E24F0B8
:1037200073050C682C4323F002058B682B430D4D69
:10373000A84201D0B04205D123F00807CB683B4333
:1037400023F00403A84201D0B04205D14D6922F410
:10375000407215438A692A43426084614968416323
:103760000362F0BD0000014000040140F0B5026AB0
:1037700022F010020262026A436884690D6824F430
:10378000E64444EA05248D6822F0200242EA05124C
:103790000F4D104EA84201D0B04206D1CF6822F0A2
:1037A000800242EA071222F04002A84201D0B04251
:1037B00007D14D6923F4406343EA85038D6943EAE9
:1037C000850343608461496881630262F0BD000043
:1037D0000000014000040140F0B5026A22F480724A
:1037E0000262026A4368C46922F4007224F073051D
:1037F0000C68124E2C438D6842EA05220E4DA842F9
:1038000001D0B04206D1CF6822F4006242EA07221A
:1038100022F48062A84201D0B04207D14D6923F45E
:10382000405343EA05138D6943EA05134360C461BD
:103830004968C1630262F0BD00000140000401401C
:1038400030B5026A22F480520262046A4268C36997
:103850000D6823F4E64343EA05238D6824F40054FD
:1038600044EA0534084DA84202D0084DA84204D1CC
:103870004D6922F4804242EA85124260C361496880
:103880000164046230BD00000000014000040140FA
:1038900010B5036A046A24F001040462846924F008
:1038A000F00444EA021423F00A020A43846102622B
:1038B00010BD10B5036A23F0100303628369046A24
:1038C00023F4704343EA023224F0A00343EA0111D7
:1038D0008261016210BD10B5806B0021C185C18479
:1038E000FEF774FF10BD0168CA6822F49072CA60C6
:1038F00001684A6922F001024A61016B012904D181
:103900000168CA6822F01002CA60202180F83E10C7
:1039100000210163704710B5044690F83E0022284C
:1039200001D0022010BDA1684FF48052914201D114
:10393000206920B1A06A91421BD049B10AE02168F8
:10394000A06A4968C1F308010180A06A801C08E0F0
:10395000216971B12168496801F07F010170A06A95
:10396000401CA062E08D401E0004000CE08503D0E6
:103970001CE021684968F1E72068C16821F0200156
:10398000C1602068C16821F48071C160206841690C
:1039900021F001014161202084F83E00206B0128C4
:1039A00006D02046FFF78AF800202063002010BDD3
:1039B0002068C16821F01001C160A18D2046FEF78A
:1039C00004FFF1E770B5044600680169E26821F47C
:1039D0004051114301612169A068E26908436169AE
:1039E000114308432168CA6849F20C639A430243B1
:1039F000CA6020684169A26921F4407111434161A4
:103A000031492068884202D03049884202D1FDF70E
:103A1000EDFF01E0FDF7DAFFE269002319216425DB
:103A20003226B2F5004F626828D0A0FB0101930F47
:103A30009200FCF739FC0146B0FBF5F06FF018027C
:103A4000504301EB800006EB0010B0FBF5F000F0F6
:103A5000F002B1FBF5F002EB0012B1FBF5F06FF0F4
:103A60001803584301EB800006EB0010B0FBF5F0A3
:103A700000F00F0021681044886070BDA0FB0101B8
:103A800092185B41FCF710FC0146B0FBF5F0020117
:103A9000B1FBF5F06FF01803584301EB800006EB23
:103AA000C000B0FBF5F000F0F80002EB4002B1FB03
:103AB000F5F0584301EB800006EBC000B0FBF5F0D9
:103AC00000F00700D6E7000000100140001401409C
:103AD0002DE9F041984617460E460446069D1DE026
:103AE000681C1BD02DB1FDF7C1FDA0EB0800A8425A
:103AF00014D92068C16821F4D071C160206841697F
:103B000021F001014161202084F83D0084F83E004D
:103B1000002084F83C000320BDE8F08120680068A4
:103B200036EA000004D00020B842D9D00020F3E7E4
:103B30000120F9E710B55020EFF3118480F31188CC
:103B4000BFF34F8FBFF36F8F0248FEF741FE84F340
:103B5000118810BDA4050020FEE700000FB4054B3E
:103B600010B503A9044A029800F01EFE10BC5DF8CF
:103B700014FB0000D94E00081C01002003B401987A
:103B80004100009850EAC12018BF04204A0D18BF18
:103B900040F0010040F2FF72B2EB515F08BF40F00D
:103BA0000200012808BF052002B070470907090E6E
:103BB000002804DB00F1E02080F80014704700F0DA
:103BC0000F0000F1E02080F8141D70470000000095
:103BD00070B5C1482DED020B2DED0E8B82B0119DFD
:103BE00025F000449FEDBEDB9FEDBFEB84423EDB42
:103BF000A4F140511098A1F17F6108430FD0BC4857
:103C0000844202DC28D1109830B39DED100B02B035
:103C1000BDEC0E8B02B0BDE8704000F0B8BC9DED6D
:103C2000100B53EC1D2B51EC100BFCF792FB9DED90
:103C3000100B41EC180B53EC1E2B51EC100BFCF746
:103C400088FB53EC182BFCF718FD41EC100B02B06D
:103C5000BDEC0E8B02B070BD012000F0DDFC02B0A7
:103C6000BDEC0E8B02B0BDE8704000F0A5BCA148D1
:103C70009FEDA18B844256DA9DED100BB4F1795F74
:103C80000ADA51EC100BFFF779FF042808BF00F0A7
:103C9000A3FC9DED100BDAE753EC102B51EC100B4D
:103CA000FCF757FB41EC190B95480621B0EE490A89
:103CB000F0EE690A784400F0EEFB53EC192B51EC5E
:103CC000100BFCF746FB41EC1A0B8E48B0EE490A8C
:103CD000F0EE690A0421784400F0DDFB53EC192B67
:103CE00051EC100BFCF735FB53EC182BFCF7C5FC23
:103CF00041EC100B51EC1A0B53EC102BFCF764FD4C
:103D0000CDE900019DED000B53EC102B9DED100B48
:103D100051EC100BFCF71DFB9DED101B53EC112B10
:103D2000FCF7ABFCD2E09DED100B51EC100B01F059
:103D3000C6F853EC182BFCF744FD9FED730BCDE94F
:103D4000000153EC102B9DED000B51EC100BFCF718
:103D500000FB41EC190B6E480621B0EE490AF0EE6B
:103D6000690A784400F097FB53EC192B51EC100BC7
:103D7000FCF7EFFA41EC1B0B6648B0EE490AF0EE97
:103D8000690A0421784400F086FB53EC192B51ECAE
:103D9000100BFCF7DEFA53EC182BFCF76EFC41EC31
:103DA0001C0B51EC190B02F053FA41EC180B5A485A
:103DB0009FED5BABA04222DC53EC1C2B51EC1B0BA8
:103DC000FCF702FDCDE900019DED000B51EC180B55
:103DD00053EC102BFCF7BDFA53EC182BFCF74DFC01
:103DE00053EC1A2BFCF7B5FA53EC1D2BFCF7E6FC51
:103DF00053EC1E2BFCF7E5FC41EC100B5FE08DED66
:103E0000008B002000909DED000B51EC180B53EC43
:103E1000102BFCF732FC9DED000B41EC1E0B53EC1C
:103E2000102B51EC100BFCF794FA53EC192BFCF708
:103E3000C8FC53EC1E2BFCF7C7FC41EC190B53ECF0
:103E40001C2B51EC1B0BFCF7BFFC41EC1B0B53EC88
:103E50001A2B51EC190BFCF77CFA53EC1D2BFCF7D9
:103E6000B0FC41EC190B53EC1A2B51EC180BFCF77E
:103E700070FA53EC1B2BFCF76CFA53EC192BFCF784
:103E80009DFC9DED000B41EC180B53EC1A2B51ECF3
:103E9000100BFCF75EFA9FED249B53EC192BFCF7FB
:103EA00090FC41EC100B51EC180B53EC102BFCF771
:103EB00085FC53EC192BFCF784FC41EC100B002D16
:103EC0003FF7C5AE51EC100B81F0004141EC100BF7
:103ED000BDE60000000000000000F03F0000000010
:103EE000075C143326A6913C182D4454FB21F93F5E
:103EF0000000F07F0000E03F000000000000F03F05
:103F00003832000046320000000000000000E03FB0
:103F10008A310000983100003333EF3F0000000089
:103F20000000000000000040182D4454FB21E93F30
:103F300070B59B482DED020B2DED068B079D25F0EE
:103F40000044A04218DC9748844202DC0AD106985B
:103F500040B19DED060BBDEC068B02B0BDE8704094
:103F600000F015BB002DCCBF9FED8F0B9FED900B8C
:103F7000BDEC068B02B070BD8F48A04215DD8F48A6
:103F8000A042D8BF4FF0FF3458DD9DED060B51EC39
:103F9000100BFFF7F3FD042808BF00F01DFB9DED9B
:103FA000060BBDEC068B02B070BD9DED060B51EC0F
:103FB000100B00F084FFCDE9060181489FED828B54
:103FC000A0423CDD8248A0421FDD00249FED82AB71
:103FD0009DED060B53EC1A2B51EC100BFCF74DFB2F
:103FE0009DED060B41EC190B53EC1A2B51EC100B09
:103FF000FCF7AFF953EC182BFCF7E0FB53EC192B53
:10400000FCF7E2FBCDE9060149E09DED060B01243A
:1040100053EC182B51EC100BFCF72FFB9DED060B0E
:1040200041EC190B53EC182B51EC100BFCF7C6FBB1
:1040300053EC192BFCF7C8FBCDE906012FE06848CB
:10404000A0421FDD02249FED689B9DED060B53EC03
:10405000192B51EC100BFCF77CF953EC182BFCF7E7
:104060000CFB9DED060B41EC180B53EC192B51EC9E
:10407000100BFCF7A3FB53EC182BFCF7A5FBCDE9C9
:1040800006010CE09DED060B032453EC102B9FED75
:10409000580B51EC100BFCF797FBCDE906019DED99
:1040A000060B53EC102B51EC100BFCF752F941ECC2
:1040B000180B53EC182BFCF74CF941EC190B4E483C
:1040C0000621B0EE490AF0EE690A784400F0E3F9FF
:1040D00053EC182B51EC100BFCF73BF941EC180B8F
:1040E0004648B0EE490AF0EE690A0521784400F02E
:1040F000D2F953EC192B51EC100BFCF72AF941ECD7
:10410000100B51EC180B53EC102B002C0EDAFCF7B3
:10411000B4FA9DED061B53EC112BFCF71AF99DED3B
:10412000061B53EC112BFCF74CFB35E0FCF7A5FA12
:104130009DED061B53EC112BFCF70BF941EC100B1A
:104140002F48784400EBC40090ED001B51EC100B9D
:1041500053EC112BFCF732FB9DED061B53EC112B9E
:10416000FCF72CFB41EC100B2648784400EBC40014
:1041700090ED001B51EC100B53EC112BFCF721FBC5
:1041800041EC100B002DA2BFBDEC068B02B070BD40
:1041900051EC100B81F0004141EC100B01E70000E5
:1041A000000010440000F07F182D4454FB21F93F1B
:1041B000182D4454FB21F9BF0000DC3F0000203ED5
:1041C0000000F33F00000000000000000000F03F8E
:1041D0000000E63F0000000000000000000000407A
:1041E0000080034000000000000000000000F83FD5
:1041F000000000000000F0BFDA2E0000902E00004A
:104200001A2E0000D22D000070B56F4E2DED040B5C
:104210002DED048B82B0DDF824C0DDE907235C427C
:104220002CF000411C4341EAD474069D22F000406A
:10423000B44205D86C422C4340EAD474B4420BD942
:104240009DED081B9DED060B02B0BDEC048B04B088
:10425000BDE8704000F0A5B9ACF14054A4F17F6412
:104260001C430BD0022404EAAC7444EAD274054324
:104270009FED578B9FED582B07D015E09DED060B5A
:1042800051EC100B00F013FE42E0002C11BF012C8A
:104290009DED060B02B0BDEC048B04BF04B070BDF5
:1042A000022C38D0032C3BD00B439FED4D1B9FEDD0
:1042B0004E0B0AD0B14218D1B04209D121F0804151
:1042C00020F08040099107900FE0002A15DA10E0F5
:1042D000474B7B44002C08BF93ED000B0DD0012C05
:1042E00010D0022C17D0032C1AD0B0421DD1002AB6
:1042F00003DAB0EE410AF0EE610A02B0BDEC048BC5
:1043000004B070BD93ED000B51EC100B81F0004137
:1043100041EC100BF1E7B0EE480AF0EE680AECE76A
:10432000B0EE420AF0EE620AE7E7401A00159FED90
:10433000329B3C28C8BF8DED000B17DCBCF1000F91
:10434000BCBF10F13C0F8DED009B0FDB9DED080B0A
:1043500053EC102B9DED060B51EC100BFCF734FACF
:1043600000F0ADFD00F0A3FDCDE90001B4B1012CDA
:1043700010D0022C9FED220B53EC102B9DED000B67
:1043800051EC100B19D0FCF719FA53EC182BFCF771
:1043900015FABDE7019880F0004001909DED000BFB
:1043A00053EC192B51EC100BFCF7E6FA04BF02207A
:1043B00000F032F99DED000B9FE7FCF7FFF953EC9D
:1043C000182BFCF7FEF9A3E70000F07F00000000C7
:1043D000182D4454FB210940182D4454FB2109C0D9
:1043E000182D4454FB21F9BF182D4454FB21F93FEB
:1043F000022D00000000000000000000000000008E
:10440000075C143326A6A13C2DED020B019820F089
:10441000004001909DED000B02B0704700B52DEDFE
:10442000048BB0EE409AF0EE609A83B051EC190B19
:10443000FCF739FA41EC180B18EE100A18EE901A36
:104440008DED008B002818BF0120084320F00040AC
:10445000C0F17F6000F1E040C00F14D019EE101AD7
:1044600019EE900A8DED009B002918BF0121084329
:1044700020F00040C0F17F6000F1E040C00F04BFB9
:10448000012000F0C9F8B0EE480A03B0F0EE680A67
:10449000BDEC048B00BD70B504462DED028B4D1EA6
:1044A00000EBC500B0EE408AF0EE608A90ED000BA4
:1044B00035F0060017D053EC182B51EC100BFBF71E
:1044C00048FF41EC100B6D1E04EBC50090ED001B86
:1044D00051EC100B53EC112BFCF7CFF841EC100B07
:1044E00035F00600E7D1022D36D0042D1CD0062D64
:1044F0001CBFBDEC028B70BD53EC182B51EC100BA4
:10450000FBF727FF94ED0A1B53EC112BFCF7B5F8D2
:1045100053EC182BFBF71DFF94ED081B53EC112BEC
:10452000FCF7ABF841EC100B53EC182B51EC100BD3
:10453000FBF70FFF94ED061B53EC112BFCF79DF8D6
:1045400053EC182BFBF705FF94ED040B53EC102BE9
:10455000FCF793F841EC100B53EC182B51EC100BBB
:10456000FBF7F7FE94ED021B53EC112BFCF785F8DB
:1045700053EC182BFBF7EDFE94ED001B53EC112BC5
:10458000FCF77BF8BDEC028B41EC100B70BD10B555
:1045900053EC102B51EC100BFCF76FF841EC100BA7
:1045A00010BD10B553EC112B51EC100BFCF765F856
:1045B00041EC100B10BD00009FED050B10B553EC46
:1045C000102B51EC100BFCF7FFF841EC100B10BD59
:1045D00000000000000000009FED050B10B553EC3B
:1045E000102B51EC100BFBF7B4FE41EC100B10BD7F
:1045F000000000000000001002E008C8121F08C1FF
:10460000002AFAD170477047002001E001C1121F53
:10461000002AFBD170470000014908607047000084
:10462000200100202DE9FF5F82B00021DDE9043088
:10463000020DDDF840B0034318D044F61050A2F24A
:10464000FF3242431514119801281FD0A5EB0B002F
:10465000401C5FEA000A4FF000064E4FDFF8389129
:10466000B046504615D5CAF1000413E01198012454
:104670004AA3012801D16FEA0B010298119AC0E9FF
:104680000031C0E9024206B0BDE8F09FCBF1000066
:10469000DFE704460021404A491842EB0450CDE9C7
:1046A000001012E0E00707D032463B46404649463C
:1046B000FBF74FFE8046894632463B461046194678
:1046C000FBF747FE06460F466410002CEAD1DDE9F1
:1046D0000401DDE90023BAF1000F06DAFBF739FE29
:1046E00042464B46FBF735FE05E0FCF76DF84246C7
:1046F0004B46FCF769F804460E460022284BFBF7B0
:10470000BFFE03D84FF0FF30014607E00022254BE3
:1047100020463146FBF7B1FFFCF716F9102409E0FB
:10472000002C0ADB0A220023FBF7BEFD039B30327C
:104730001A55641E50EA0102F2D1641C039AC4F1B6
:1047400011031444119A012A03D0012208430DD108
:104750000AE0084304D000204FF0110B119072E7DB
:10476000A3EB0B056D1E0DE05B4504DD4FF0000271
:1047700005F1010504E003DA4FF00002A5F101059F
:10478000002AECD002981199C0E90231C0E9004535
:1047900079E70000000014400000F03F3000000006
:1047A0000000F0430000E03F2DE9FF4F95B09A462E
:1047B000884606460025EEE1252877D100242746C5
:1047C000F94A0121039400E0044316F8013F203B1D
:1047D00001FA03F01042F7D130782A2811D06FF097
:1047E0002F033078A0F13002092A16D8039A44F03A
:1047F000020402EB820203EB42021044761C039097
:10480000EFE758F8042B0392002A03DA504244F4ED
:104810000054039044F00204761C30782E2816D100
:1048200016F8010F44F004042A280DD06FF02F026F
:104830003078A0F13003092B09D807EB870302EB8E
:104840004303C718761CF3E758F8047B761C3078CE
:104850006C280FD006DC4C2817D068280DD06A28A9
:1048600014D104E0742810D07A280FD10DE044F45C
:1048700000140AE044F4801401E044F44014727817
:10488000824202D104F58014761C761C30786628AA
:104890000BD013DC582877D009DC002875D04528C8
:1048A000F6D04628F4D047281AD193E118E06328BF
:1048B00035D0642879D0652812D18BE1702873D067
:1048C00008DC6728F1D069286FD06E280DD06F28DA
:1048D00006D1ACE073282CD0752874D0782853D03A
:1048E0005246179990476D1C54E1C4F302500228B8
:1048F00009D003280DD0D8F8001004280DD00D6081
:1049000008F1040846E1D8F80010EA17C1E900529E
:10491000F6E7D8F800100D80F2E70D70F0E718F810
:10492000041B8DF8001000208DF80100EB460120DB
:1049300003E058F804BB4FF0FF3061074FF000016F
:1049400002D40DE009F101018946B9420FDA81452F
:10495000F8DB1BF809100029F4D108E009F1010186
:1049600089468142FADB1BF809100029F6D1039829
:104970005346A0EB090721463846179A00F080FA03
:10498000284400EB090507E044E008E10DE01BF8CE
:10499000010B524617999047B9F10109F7D25346D6
:1049A00021463846179AF2E039E00A21C4F3025250
:1049B0004FF0000B0091022A06D058F8040BC117E3
:1049C000032A09D00AE023E008F1070020F00702DB
:1049D000F2E80201904605E000B2C117042A01D1B5
:1049E00040B2C117002906DA0A460021404261EBB5
:1049F00002012D2202E0220504D52B228DF804208D
:104A0000012203E0E20701D02022F7E7914657E0B8
:104A10000A2100E010214FF0000B00910BE0102163
:104A20004FF0000B44F004040827009103E0082035
:104A30004FF0000B0090C4F30252022A05D058F840
:104A4000040B0021032A08D008E008F1070020F039
:104A50000702F2E80201904603E080B2042A00D186
:104A6000C0B24FF0000922072AD53278702A07D049
:104A7000DDF800C08CF0100C5CEA0B0C05D00EE0E9
:104A800040228DF80420012208E050EA010306D0FC
:104A900030238DF804308DF8052002229146009BCA
:104AA00083F0080353EA0B030AD150EA010201D153
:104AB000620705D530228DF804204FF001097F1ED2
:104AC0003278582A04D039A20C920CAA02920BE038
:104AD0003BA2F9E75B46009AFBF7E6FB0C9B9B5C6D
:104AE000029A521E0292137050EA0102F2D1029809
:104AF00004A9081A00F1200B600702D524F48034C1
:104B000000E001275F4502DDA7EB0B0000E000207D
:104B100000EB0B01009003984944401A0390E00316
:104B200006D453462146179A039800F0A9F9054484
:104B3000002706E001A85246C05D179990476D1CFA
:104B40007F1C4F45F6DBE0030CD553462146179AF0
:104B5000039800F095F9054404E030205246179977
:104B600090476D1C0099481E00900029F5DC08E074
:104B70000298029952460078491C02911799904771
:104B80006D1CBBF10001ABF1010BF1DC5BE100F04E
:104B900065F90544761C307800287FF40DAE19B015
:104BA0002846BDE8F08F000009280100303132337B
:104BB0003435363738396162636465660000000059
:104BC0003031323334353637383941424344454643
:104BD00000000000600700D4062708F1070020F05D
:104BE0000700F0E80223804603F0004C5FEA0C0067
:104BF00001D097A009E0200501D596A005E0E007C7
:104C000001D095A001E0AFF24C001390307823F072
:104C1000004365280CD006DC452809D046281DD065
:104C200047287FD13BE0662818D067287AD136E044
:104C30000021112F01DB112000E0781CCDE90001DB
:104C400004A90CA8FFF7EEFCDDE90D010C9A4FF06A
:104C5000000B07F10109109200914EE04FF0004067
:104C60000097CDE9011004A90CA8FFF7DBFCDDE9F2
:104C70000D020C9B0F994FF0000B91461093009280
:104C800011B9791C00EB0109B7EB090003D4C0F19D
:104C9000FF3B07F10109A9EB0700019042E0012F5A
:104CA00000DA01270021112F01DD112000E0384634
:104CB000CDE9000104A90CA8FFF7B4FCDDE90D0162
:104CC0000C9A00914FF0000BB946109221070FD4B7
:104CD000009A4A4503DA914601E0A9F10109B9F1C8
:104CE000010F05DD109AA9F10101515C3029F4D0C2
:104CF000B84202DA10F1040F03DA0121CDE9011004
:104D000010E0002803DC8344A9EB000102E0411C11
:104D1000494500DD8946A0EB0B00401C01904FF097
:104D200000400290200705D40198484502DB4FF06F
:104D3000FF30019000208DF84B0002980DF14B07D9
:104D4000B0F1004F25D002200C902B200D9002983E
:104D500000280CDA404202902D200D9007E00A2135
:104D60000298FBF7C1FB3031029007F8011D0C9946
:104D7000481E0C900029F2DC02980028EFD1791E21
:104D80000D980870307800F0200040F0450007F8DA
:104D9000020D11A8C01BC01D02901398007800B12D
:104DA000012000EB0901019801EBE0710298014438
:104DB0000398401A401E0390E00306D45346214650
:104DC000179A039800F05CF805441398007818B11E
:104DD0005246179990476D1CE00323D55346214650
:104DE000179A039800F04CF805441BE0BBF1000F44
:104DF00007DB0098584504DD1098179910F80B0050
:104E000001E0179930205246904701980BF1010BB1
:104E1000401E05F10105019004D12E20524617993C
:104E200090476D1CB9F10001A9F10109DEDC05E034
:104E300017F8010B5246179990476D1C0299481EAE
:104E400002900029F4DC53462146179A03989EE607
:104E50002D0000002B000000200000002DE9F04193
:104E6000044600251E461746880404D405E039464A
:104E70002020B0476D1C641EF9D52846BDE8F0819E
:104E80002DE9F041044600251E469046C80301D591
:104E9000302700E02027880404D505E04146384645
:104EA000B0476D1C641EF9D52846BDE8F08110B5E9
:104EB00041EC100BFFF73CF851EC100B10BD82B029
:104EC000CDE9000121F0004001909DED000B02B002
:104ED00051EC100B7047000013B54FF6FF73012221
:104EE00069460248FDF7ECFD00981CBDA4050020B2
:104EF00010B5FF4CFF482DED108B94ED010AD4ED59
:104F0000010A20EE20FA94ED010AD4ED020A20EE07
:104F100020CA94ED010AD4ED030A60EE20BA94EDA4
:104F2000010AD4ED040A60EE20CA94ED020AD4ED21
:104F3000020A20EE20DA94ED020AD4ED030A20EEF4
:104F4000209A94ED020AD4ED040A20EE20BA94EDE2
:104F5000030AD4ED030A60EE20AA94ED030AD4ED0F
:104F6000040A20EE20AA94ED040AD4ED040A60EEAF
:104F7000209A90ED040A84ED080A90ED050A84ED6C
:104F8000090A90ED060A84ED0A0AB0F9001000EE55
:104F9000101AB8EEC00A84ED0B0AB0F9021000EE48
:104FA000101AB8EEC00A84ED0C0AB0F9041000EE35
:104FB000101AB8EEC00A84ED0D0AB0F9061000EE22
:104FC000101AB8EEC00A84ED0E0AB0F9081000EE0F
:104FD000101AB8EEC00A84ED0F0AB0F90A0000EE0C
:104FE000100AB8EEC00A84ED100AFCF73FFBA0647B
:104FF000A06C616C401A00EE100AB8EE400ADFEDBA
:10500000BE0AA06CC0EE208A606494ED0B0AD4ED59
:105010000B0A94ED0C1A20EE200AD4ED0C0A00EED7
:10502000810AD4ED0D0A94ED0D1A00EE810A00F00C
:1050300055FBD4ED0B0A60EE800AC4ED0B0AD4EDEB
:105040000C0A60EE800AC4ED0C0AD4ED0D0A20EEC5
:10505000800A84ED0D0A94ED0E0AD4ED0E0A94ED4B
:105060000F1A20EE200AD4ED0F0A00EE810AD4EDCB
:10507000100A94ED101A00EE810A00F02FFBD4ED17
:105080000E0AB6EE001AB0EE008A60EE800A39EE23
:105090006CEA7BEE2B1AC4ED0E0AD4ED0F0A60EE1B
:1050A000800AC4ED0F0AD4ED100A20EE800A71EEDA
:1050B0006A0A31EE4D1A84ED100A94ED0E0A70EE74
:1050C000E9EA31EE692A20EE080A71EE6ADA60EE4A
:1050D0002E0A94ED0F0A20EE080A40EE0E0A94ED17
:1050E000100A20EE080A40EE210A94ED0E0A79EE2D
:1050F0002C1A7BEE6BCA20EE080A60EEA00A20EEA6
:10510000210AD4ED0F1A61EE881A01EE820AD4ED5D
:10511000101A3AEE4C2A61EE881A01EE820AD4ED9A
:105120000E1A3AEE0C2A61EE881A40EE000A21EEC1
:10513000AC9AD4ED0F1A10EE900A61EE881A01EEC7
:10514000829AD4ED101A61EE881A01EEAD9AFBF73F
:1051500083F941EC100BFFF761F951EC100BFBF7F1
:10516000A7F900EE900A7CEE0A2A3FEE4D1A60EE97
:10517000880A69EE083A22EE880A31EE6A1A60EE71
:105180008E1A94ED104A2CEE882A31EE293A43EE1D
:10519000A21A7BEE8B2A20EEAE1A60EEA22AD4ED84
:1051A0000C0A03EEAC1A43EEAD2A60EE830AD4ED8E
:1051B0000D3A43EEC00AD4ED0F3A63EEA23A44EE44
:1051C000613A94ED0B4A70EEA30AD4ED0D3A63EE0A
:1051D000823AF5EEC00A44EE433A94ED103A94ED6B
:1051E0000E4A23EE013A04EE623A73EE832A94EDFE
:1051F0000B3A23EE000A94ED0C3A03EE420A94EDCA
:105200000E2A62EE211A94ED0F2A42EE411A30EE78
:10521000210AF1EE10FA41D0F5EEC02AF1EE10FAB3
:105220003CD0B5EEC00AF1EE10FA37D0D4ED051A35
:105230009FED321A20EE812A42EE281A22EE812AB0
:10524000C4ED051AD4ED061A42EE281AC4ED061A6A
:1052500060EE011A94ED071A01EEA81A84ED071A00
:1052600094ED081A00EE881AD4ED050A71EE200AB2
:10527000C4ED080AD4ED090A94ED061A42EE880A34
:1052800070EE810AC4ED090AD4ED0A0A40EE080A5C
:1052900094ED070A30EE800A84ED0A0A94ED020AC2
:1052A000D4ED080A94ED091A94ED013A20EEC00AF3
:1052B000D4ED030A00EEC10AD4ED040A94ED0A1AF3
:1052C00000EEC10AD4ED080A94ED0A1A00EE283A5D
:1052D00094ED010A20EE200AD4ED030A00EE810AC3
:1052E000D4ED040A94ED091A00EEC10A08E00000AA
:1052F0003C000020300600200000FA440AD7233C7E
:10530000D4ED021AD4ED090A94ED0A1A40EE281AD7
:1053100094ED010A94ED032AD4ED042A20EE200A2C
:10532000D4ED020A00EEC10AD4ED040A94ED081A85
:1053300000EE810AD4ED0A0A94ED091A00EE282A3B
:1053400094ED010A20EE200AD4ED020A00EE810A53
:10535000D4ED030A94ED081A00EEC10A40EE282AA3
:1053600023EE030A01EEA10A02EE020A02EEA20AED
:1053700000F0B4F963EE000AC4ED010A61EE800AA0
:10538000C4ED020A62EE000A22EE800AC4ED030AAE
:1053900084ED040ABDEC108B10BD000070B5564CB6
:1053A0002DED068BF8EE008AB0EE008AB7EE00AA6B
:1053B00094ED030AD4ED030A94ED041A20EE280AB2
:1053C00020EE200AD4ED040A60EE880A00EEC10A3D
:1053D00030EE0A0A10EE100AFBF73EF894ED020ACE
:1053E000D4ED030A94ED041A20EE080A41EC190BDF
:1053F00020EE200AD4ED010A60EE880A00EE810A50
:1054000010EE100AFBF728F841EC100BB0EE491A29
:10541000F0EE691AFEF7F8FE9FED389B51EC100B89
:1054200053EC192BFAF795FFFBF742F8354D28633B
:1054300094ED020AD4ED040A94ED031A20EE280A32
:1054400020EE200AD4ED010A60EE880A00EE810AFF
:1054500010EE100AFBF700F841EC100BFEF7B8FB5A
:1054600053EC192B51EC100BFAF773FFFBF720F8F4
:10547000E86294ED020AD4ED020A94ED031A20EEDC
:10548000280A20EE200AD4ED030A60EE880A00EE16
:10549000C10A30EE0A0A10EE100AFAF7DDFF94EDA9
:1054A000030AD4ED040A94ED021A20EE080A41EC36
:1054B000190B20EE200AD4ED010A60EE880A00EEF6
:1054C000810A10EE100AFAF7C7FF41EC100BB0EE9C
:1054D000491AF0EE691AFEF797FE9FED0B1B51EC8F
:1054E000100B53EC112BFAF734FFFAF7E1FFA86227
:1054F000BDEC068B70BD00003C0000206666666651
:1055000066A64CC0300600206666666666A64C40FD
:1055100010B559482DED0A8BB0F90610B0F9080006
:105520009FED569BDFED57BA574C9FED588A9FED84
:1055300058BADFED58AA9FED58AADFED588A002926
:105540004EDA9FED57CA00282ADA91FBF0F0FAF7FD
:1055500072FF41EC100BFEF757FF53EC192B51EC87
:10556000100BFAF78DFF0AD8C4ED01BA84ED028A58
:105570009FED4C0A84ED030A9FED4B0A0BE09FED73
:105580004B0A84ED010A9FED4A0A84ED020A84ED7C
:1055900003BA9FED480A84ED040ABDEC0A8B10BDE6
:1055A000FBDD91FBF0F0FAF746FF41EC100BFEF744
:1055B0002BFF53EC192B51EC100BFAF761FF84ED24
:1055C00001CA06D884ED028AC4ED03AA9FED3A0A07
:1055D000E1E784ED02AAC4ED038A9FED380ADAE719
:1055E000DBDD00289FED36CA22DD91FBF0F0FAF7F3
:1055F00022FF41EC100BFEF707FF53EC192B51EC87
:10560000100BFAF73DFF0AD89FED2E0A84ED010A30
:10561000C4ED02AA84ED038AC4ED04BABDE79FED90
:105620002A0A84ED010AC4ED028A84ED03AAB2E7D6
:10563000B3DA91FBF0F0FAF7FEFE41EC100BFEF747
:10564000E3FE53EC192B51EC100BFAF719FF84ED24
:1056500001CA08D89FED1D0A84ED020A84ED038A71
:105660009FED1B0A97E79FED1B0A84ED02BA84EDBC
:10567000030A9FED190A8EE73006002000000000A3
:105680000000F03F0AD7A3BB3C000020A8C64BBED9
:10569000E17A543F355E7ABF68910DBFE17A54BF1D
:1056A0000AD7A33BBE9F7A3F4ED111BC6F1203BCF9
:1056B0007B140EBF6F1203BBA69B443C99BB16BB69
:1056C0000AD7233B52499D3A99BB163B355E7A3F38
:1056D0006F12033C295C0FBFBC74933B10EE100AA1
:1056E000F6EE000A074960EE200AA1EB600000EE2A
:1056F000100A20EE801AF7EE080A41EE400A20EE6A
:10570000800A7047DF59375F06220146492000F0C2
:1057100081BA10B530216A2000F0B4FA0A20FBF7F4
:1057200071FE0D21242000F0ADFA0A20FBF76AFE7D
:105730000E21282000F0A6FA0A20FBF763FE8E2136
:10574000312000F09FFA0A20FBF75CFE01210B20BC
:1057500000F07BF80A20FBF755FE002000F059F816
:10576000102801D0012010BD01210B2000F06DF8A0
:105770000A20FBF747FE00210A2000F066F80A2005
:1057800000F047F808B1022010BD0A20FBF73AFEEE
:1057900000210B2000F059F80B2000F03AF808B176
:1057A000032010BD0A20FBF72DFE2421412000F02C
:1057B0004CF8412000F02DF8242801D0042010BD21
:1057C0000A20FBF71FFEC021422000F03EF84220D5
:1057D00000F01FF8C02801D0052010BD0A20FBF7FB
:1057E00011FE00212A2000F04DFA0A20FBF70AFEE4
:1057F0000021342000F046FA0A20FBF703FE0622BF
:1058000003210E2000F042F96420FBF7FBFD00208D
:1058100010BD10B50146322000F034FA0A20FBF723
:10582000F1FD8021342000F02DFA0A20FBF7EAFD7B
:10583000352000F0C7F904460021342000F022FA98
:105840000A20FBF7DFFD204610BD70B50D4604466B
:1058500000212A2000F016FA0220FBF7D3FD214692
:10586000292000F00FFA0220FBF7CCFD2946642026
:1058700000F008FA0220FBF7C5FD81212A2000F084
:1058800001FABDE870400A20FBF7BCBD01211A48AF
:10589000FBF7E2FE48B91A489FED180A80ED000AAE
:1058A00019489FED180A80ED000A1848FDF744FDDD
:1058B0001748FDF7EBFC1748FDF7BEFC1648FDF74F
:1058C00011FDFBF7E1FEFDF70BFEFDF7C7FAFDF753
:1058D00031FAFDF74BFBFDF77DFBFDF7AFFBFDF765
:1058E0002BFCFDF723FB00F01FF8FFF711FEFDF77F
:1058F0006BFA00F0F8F9FEE700000240000048C42F
:105900009C00002000000000A0000020C00100203A
:105910008C010020240100205801002001460020B5
:10592000842900D0C81C704730B585B06420FBF7CF
:1059300069FD752000F046F9124900241422887090
:1059400011496846FAF7E1FC4FEA0D0505EB440002
:10595000417815F8140000F095F90120FBF752FD8D
:10596000641CE4B20A2CF1D3032000F086F9022073
:1059700000F07EF9FFF7CDFE00F0D0F805B0002072
:1059800030BD00003C000020C46E000810B50E229F
:1059900039493B2000F03EF9374800F10E040188F8
:1059A00049BA2180418849BA6180818849BAA18079
:1059B000C18849BAA1810189628B49BA891AE181FA
:1059C0004189A28B49BA891A21828089E18B40BA28
:1059D000401A60822948FFF797FE2849A4F1420047
:1059E0004C399FED271ACA6C8264B1F85010A0F8A8
:1059F0004C10D0F842100160D0F846104160D0F849
:105A00004A108160B4F90C0000EE100AA4F14200C3
:105A1000F8EEC00A80EE810AF3EE050A30EE200AA5
:105A200080ED030AB4F90E1000EE101AF8EEC00A69
:105A30009FED140A80EE801ADFED130AC1EE201AE2
:105A4000C0ED041AB4F9101001EE101AF8EEC11AE4
:105A500081EE801AC1EE201AC0ED051AB4F91210B9
:105A600001EE101AF8EEC11A81EE801A81EE200ABA
:105A700080ED060A10BD00006406002088000020AA
:105A80005CEFA6436F1283413333654270B50E4617
:105A9000044601461546282000F0F4F80220FBF7E2
:105AA000B1FC0A21292000F0EDF80220FBF7AAFC46
:105AB0000121642000F0E6F80220FBF7A3FC44F08B
:105AC0008001252000F0DEF80220FBF79BFC314628
:105AD000262000F0D7F80220FBF794FC03213420A5
